{
  "contractName": "ReportList",
  "abi": [
    {
      "inputs": [],
      "payable": false,
      "stateMutability": "nonpayable",
      "type": "constructor"
    },
    {
      "constant": true,
      "inputs": [
        {
          "internalType": "uint256",
          "name": "",
          "type": "uint256"
        }
      ],
      "name": "Reports",
      "outputs": [
        {
          "internalType": "uint256",
          "name": "id",
          "type": "uint256"
        },
        {
          "internalType": "uint256",
          "name": "patientID",
          "type": "uint256"
        },
        {
          "internalType": "uint256",
          "name": "hospitalID",
          "type": "uint256"
        },
        {
          "internalType": "string",
          "name": "hospitalName",
          "type": "string"
        },
        {
          "internalType": "string",
          "name": "patientName",
          "type": "string"
        },
        {
          "internalType": "string",
          "name": "disease",
          "type": "string"
        },
        {
          "internalType": "string",
          "name": "description",
          "type": "string"
        },
        {
          "internalType": "string",
          "name": "medicine",
          "type": "string"
        }
      ],
      "payable": false,
      "stateMutability": "view",
      "type": "function"
    },
    {
      "constant": true,
      "inputs": [],
      "name": "reportCount",
      "outputs": [
        {
          "internalType": "uint256",
          "name": "",
          "type": "uint256"
        }
      ],
      "payable": false,
      "stateMutability": "view",
      "type": "function"
    },
    {
      "constant": false,
      "inputs": [
        {
          "internalType": "string",
          "name": "_hospitalName",
          "type": "string"
        },
        {
          "internalType": "string",
          "name": "_patientName",
          "type": "string"
        },
        {
          "internalType": "string",
          "name": "_disease",
          "type": "string"
        },
        {
          "internalType": "string",
          "name": "_description",
          "type": "string"
        },
        {
          "internalType": "string",
          "name": "_medicide",
          "type": "string"
        },
        {
          "internalType": "uint256",
          "name": "_patientID",
          "type": "uint256"
        },
        {
          "internalType": "uint256",
          "name": "_haspitalID",
          "type": "uint256"
        }
      ],
      "name": "createReport",
      "outputs": [],
      "payable": false,
      "stateMutability": "nonpayable",
      "type": "function"
    }
  ],
  "bytecode": "0x6080604052600080553480156200001557600080fd5b50620001396040518060400160405280600d81526020017f686f73706974616c206e616d65000000000000000000000000000000000000008152506040518060400160405280600c81526020017f70617469656e74206e616d6500000000000000000000000000000000000000008152506040518060400160405280600781526020017f64697365617365000000000000000000000000000000000000000000000000008152506040518060400160405280600c81526020017f646573637072696374696f6e00000000000000000000000000000000000000008152506040518060400160405280600b81526020017f70617261636574616d6f6c000000000000000000000000000000000000000000815250607b6101416200013f60201b60201c565b62000314565b600080815480929190600101919050555060405180610100016040528060005481526020018381526020018281526020018881526020018781526020018681526020018581526020018481525060016000805481526020019081526020016000206000820151816000015560208201518160010155604082015181600201556060820151816003019080519060200190620001dc92919062000265565b506080820151816004019080519060200190620001fb92919062000265565b5060a08201518160050190805190602001906200021a92919062000265565b5060c08201518160060190805190602001906200023992919062000265565b5060e08201518160070190805190602001906200025892919062000265565b5090505050505050505050565b828054600181600116156101000203166002900490600052602060002090601f016020900481019282601f10620002a857805160ff1916838001178555620002d9565b82800160010185558215620002d9579182015b82811115620002d8578251825591602001919060010190620002bb565b5b509050620002e89190620002ec565b5090565b6200031191905b808211156200030d576000816000905550600101620002f3565b5090565b90565b610b3780620003246000396000f3fe608060405234801561001057600080fd5b50600436106100415760003560e01c8063185c6f8414610046578063467f2cd814610064578063cfbc9d8d146102d0575b600080fd5b61004e6105fb565b6040518082815260200191505060405180910390f35b6100906004803603602081101561007a57600080fd5b8101908080359060200190929190505050610601565b60405180898152602001888152602001878152602001806020018060200180602001806020018060200186810386528b818151815260200191508051906020019080838360005b838110156100f25780820151818401526020810190506100d7565b50505050905090810190601f16801561011f5780820380516001836020036101000a031916815260200191505b5086810385528a818151815260200191508051906020019080838360005b8381101561015857808201518184015260208101905061013d565b50505050905090810190601f1680156101855780820380516001836020036101000a031916815260200191505b50868103845289818151815260200191508051906020019080838360005b838110156101be5780820151818401526020810190506101a3565b50505050905090810190601f1680156101eb5780820380516001836020036101000a031916815260200191505b50868103835288818151815260200191508051906020019080838360005b83811015610224578082015181840152602081019050610209565b50505050905090810190601f1680156102515780820380516001836020036101000a031916815260200191505b50868103825287818151815260200191508051906020019080838360005b8381101561028a57808201518184015260208101905061026f565b50505050905090810190601f1680156102b75780820380516001836020036101000a031916815260200191505b509d505050505050505050505050505060405180910390f35b6105f9600480360360e08110156102e657600080fd5b810190808035906020019064010000000081111561030357600080fd5b82018360208201111561031557600080fd5b8035906020019184600183028401116401000000008311171561033757600080fd5b91908080601f016020809104026020016040519081016040528093929190818152602001838380828437600081840152601f19601f8201169050808301925050505050505091929192908035906020019064010000000081111561039a57600080fd5b8201836020820111156103ac57600080fd5b803590602001918460018302840111640100000000831117156103ce57600080fd5b91908080601f016020809104026020016040519081016040528093929190818152602001838380828437600081840152601f19601f8201169050808301925050505050505091929192908035906020019064010000000081111561043157600080fd5b82018360208201111561044357600080fd5b8035906020019184600183028401116401000000008311171561046557600080fd5b91908080601f016020809104026020016040519081016040528093929190818152602001838380828437600081840152601f19601f820116905080830192505050505050509192919290803590602001906401000000008111156104c857600080fd5b8201836020820111156104da57600080fd5b803590602001918460018302840111640100000000831117156104fc57600080fd5b91908080601f016020809104026020016040519081016040528093929190818152602001838380828437600081840152601f19601f8201169050808301925050505050505091929192908035906020019064010000000081111561055f57600080fd5b82018360208201111561057157600080fd5b8035906020019184600183028401116401000000008311171561059357600080fd5b91908080601f016020809104026020016040519081016040528093929190818152602001838380828437600081840152601f19601f8201169050808301925050505050505091929192908035906020019092919080359060200190929190505050610941565b005b60005481565b6001602052806000526040600020600091509050806000015490806001015490806002015490806003018054600181600116156101000203166002900480601f0160208091040260200160405190810160405280929190818152602001828054600181600116156101000203166002900480156106bf5780601f10610694576101008083540402835291602001916106bf565b820191906000526020600020905b8154815290600101906020018083116106a257829003601f168201915b505050505090806004018054600181600116156101000203166002900480601f01602080910402602001604051908101604052809291908181526020018280546001816001161561010002031660029004801561075d5780601f106107325761010080835404028352916020019161075d565b820191906000526020600020905b81548152906001019060200180831161074057829003601f168201915b505050505090806005018054600181600116156101000203166002900480601f0160208091040260200160405190810160405280929190818152602001828054600181600116156101000203166002900480156107fb5780601f106107d0576101008083540402835291602001916107fb565b820191906000526020600020905b8154815290600101906020018083116107de57829003601f168201915b505050505090806006018054600181600116156101000203166002900480601f0160208091040260200160405190810160405280929190818152602001828054600181600116156101000203166002900480156108995780601f1061086e57610100808354040283529160200191610899565b820191906000526020600020905b81548152906001019060200180831161087c57829003601f168201915b505050505090806007018054600181600116156101000203166002900480601f0160208091040260200160405190810160405280929190818152602001828054600181600116156101000203166002900480156109375780601f1061090c57610100808354040283529160200191610937565b820191906000526020600020905b81548152906001019060200180831161091a57829003601f168201915b5050505050905088565b6000808154809291906001019190505550604051806101000160405280600054815260200183815260200182815260200188815260200187815260200186815260200185815260200184815250600160008054815260200190815260200160002060008201518160000155602082015181600101556040820151816002015560608201518160030190805190602001906109dc929190610a5d565b5060808201518160040190805190602001906109f9929190610a5d565b5060a0820151816005019080519060200190610a16929190610a5d565b5060c0820151816006019080519060200190610a33929190610a5d565b5060e0820151816007019080519060200190610a50929190610a5d565b5090505050505050505050565b828054600181600116156101000203166002900490600052602060002090601f016020900481019282601f10610a9e57805160ff1916838001178555610acc565b82800160010185558215610acc579182015b82811115610acb578251825591602001919060010190610ab0565b5b509050610ad99190610add565b5090565b610aff91905b80821115610afb576000816000905550600101610ae3565b5090565b9056fea265627a7a72315820d2d06d803e5ff2351dc72c194fd4bbefadb79753c491b3c19d08beeb778bfd1264736f6c63430005100032",
  "source": "pragma solidity >=0.4.21 <0.6.0;\r\n\r\ncontract ReportList {\r\n    uint public reportCount=0;\r\n\r\n    struct Report {\r\n        uint id;\r\n        uint patientID;\r\n        uint hospitalID;\r\n        string hospitalName;\r\n        string patientName;\r\n        string disease;\r\n        string description;\r\n        string medicine;\r\n\r\n        // bool verify;\r\n        \r\n    }\r\n\r\n    mapping(uint => Report) public Reports;\r\n\r\n    constructor() public {\r\n        createReport(\"hospital name\", \"patient name\", \"disease\", \"descpriction\", \"paracetamol\", 123, 321);\r\n    }\r\n\r\n    function createReport(\r\n        string memory _hospitalName,\r\n        string memory _patientName,\r\n        string memory _disease,\r\n        string memory _description,\r\n        string memory _medicide,\r\n        uint  _patientID,\r\n        uint  _haspitalID\r\n        ) public {\r\n\r\n        reportCount++;\r\n        Reports[reportCount] = Report(reportCount, _patientID, _haspitalID, _hospitalName, _patientName, _disease, _description, _medicide);\r\n\r\n    }\r\n\r\n\r\n\r\n\r\n    \r\n}",
  "sourcePath": "D:\\Hackathons\\DevHeat-VividCare\\vividcare-DevHeat-2021\\src\\contracts\\ReportList.sol",
  "compiler": {
    "name": "solc",
    "version": "0.5.16+commit.9c3226ce.Emscripten.clang"
  },
  "schemaVersion": "3.4.3",
  "updatedAt": "2021-11-14T05:44:34.630Z",
  "networkType": "ethereum",
  "devdoc": {
    "methods": {}
  },
  "userdoc": {
    "methods": {}
  }
}